{
  "_format": "hh-sol-artifact-1",
  "contractName": "LiquidityExample",
  "sourceName": "contracts/LiquidityExample.sol",
  "abi": [
    {
      "inputs": [],
      "name": "DAI",
      "outputs": [
        {
          "internalType": "address",
          "name": "",
          "type": "address"
        }
      ],
      "stateMutability": "view",
      "type": "function"
    },
    {
      "inputs": [],
      "name": "USDC",
      "outputs": [
        {
          "internalType": "address",
          "name": "",
          "type": "address"
        }
      ],
      "stateMutability": "view",
      "type": "function"
    },
    {
      "inputs": [],
      "name": "collectAllFees",
      "outputs": [
        {
          "internalType": "uint256",
          "name": "amount0",
          "type": "uint256"
        },
        {
          "internalType": "uint256",
          "name": "amount1",
          "type": "uint256"
        }
      ],
      "stateMutability": "nonpayable",
      "type": "function"
    },
    {
      "inputs": [
        {
          "internalType": "uint128",
          "name": "liquidity",
          "type": "uint128"
        }
      ],
      "name": "decreaseLiquidity",
      "outputs": [
        {
          "internalType": "uint256",
          "name": "amount0",
          "type": "uint256"
        },
        {
          "internalType": "uint256",
          "name": "amount1",
          "type": "uint256"
        }
      ],
      "stateMutability": "nonpayable",
      "type": "function"
    },
    {
      "inputs": [
        {
          "internalType": "uint256",
          "name": "",
          "type": "uint256"
        }
      ],
      "name": "deposit",
      "outputs": [
        {
          "internalType": "address",
          "name": "owner",
          "type": "address"
        },
        {
          "internalType": "uint128",
          "name": "liquidity",
          "type": "uint128"
        },
        {
          "internalType": "address",
          "name": "token0",
          "type": "address"
        },
        {
          "internalType": "address",
          "name": "token1",
          "type": "address"
        }
      ],
      "stateMutability": "view",
      "type": "function"
    },
    {
      "inputs": [
        {
          "internalType": "uint256",
          "name": "_tokenId",
          "type": "uint256"
        }
      ],
      "name": "getLiquidity",
      "outputs": [
        {
          "internalType": "uint128",
          "name": "",
          "type": "uint128"
        }
      ],
      "stateMutability": "view",
      "type": "function"
    },
    {
      "inputs": [
        {
          "internalType": "uint256",
          "name": "amountAdd0",
          "type": "uint256"
        },
        {
          "internalType": "uint256",
          "name": "amountAdd1",
          "type": "uint256"
        }
      ],
      "name": "increaseLiquidityCurrentRange",
      "outputs": [
        {
          "internalType": "uint128",
          "name": "liquidity",
          "type": "uint128"
        },
        {
          "internalType": "uint256",
          "name": "amount0",
          "type": "uint256"
        },
        {
          "internalType": "uint256",
          "name": "amount1",
          "type": "uint256"
        }
      ],
      "stateMutability": "nonpayable",
      "type": "function"
    },
    {
      "inputs": [],
      "name": "mintNewPosition",
      "outputs": [
        {
          "internalType": "uint256",
          "name": "_tokenId",
          "type": "uint256"
        },
        {
          "internalType": "uint128",
          "name": "liquidity",
          "type": "uint128"
        },
        {
          "internalType": "uint256",
          "name": "amount0",
          "type": "uint256"
        },
        {
          "internalType": "uint256",
          "name": "amount1",
          "type": "uint256"
        }
      ],
      "stateMutability": "nonpayable",
      "type": "function"
    },
    {
      "inputs": [],
      "name": "nonfungiblePositionManager",
      "outputs": [
        {
          "internalType": "contract INonfungiblePositionManager",
          "name": "",
          "type": "address"
        }
      ],
      "stateMutability": "view",
      "type": "function"
    },
    {
      "inputs": [
        {
          "internalType": "address",
          "name": "operator",
          "type": "address"
        },
        {
          "internalType": "address",
          "name": "",
          "type": "address"
        },
        {
          "internalType": "uint256",
          "name": "_tokenId",
          "type": "uint256"
        },
        {
          "internalType": "bytes",
          "name": "",
          "type": "bytes"
        }
      ],
      "name": "onERC721Received",
      "outputs": [
        {
          "internalType": "bytes4",
          "name": "",
          "type": "bytes4"
        }
      ],
      "stateMutability": "nonpayable",
      "type": "function"
    },
    {
      "inputs": [],
      "name": "poolFee",
      "outputs": [
        {
          "internalType": "uint24",
          "name": "",
          "type": "uint24"
        }
      ],
      "stateMutability": "view",
      "type": "function"
    },
    {
      "inputs": [],
      "name": "tokenId",
      "outputs": [
        {
          "internalType": "uint256",
          "name": "",
          "type": "uint256"
        }
      ],
      "stateMutability": "view",
      "type": "function"
    }
  ],
  "bytecode": "0x6080806040523461003c57600080546001600160a01b03191673c36442b4a4522e871399cd717abdd847ab11fe881790556111ed90816100428239f35b600080fdfe608080604052600436101561001357600080fd5b60003560e01c908163089fe6aa14610e0d57508063150b7a0214610d8957806317d70f7c14610d6b578063306d9c6114610766578063558954c9146103fa578063686f2c901461034f57806389a3027114610320578063951583c314610281578063b44a272214610258578063b6b55f25146101f5578063da406491146100d75763e0bab4c4146100a357600080fd5b346100d25760003660031901126100d2576020604051736b175474e89094c44da98b954eedeac495271d0f8152f35b600080fd5b346100d25760203660031901126100d2576004356001600160801b03908181168091036100d2576002549060405160a081019080821067ffffffffffffffff8311176101df5760409360a4928552815260208101928352600084820181815260608301828152608084019042825260018060a01b03845416928851998a988997630624e65f60e11b8952516004890152511660248701525160448601525160648501525160848401525af19081156101d3576040916000916000916101a4575b5082519182526020820152f35b90506101c69150823d84116101cc575b6101be8183610e5f565b810190610eb8565b83610197565b503d6101b4565b6040513d6000823e3d90fd5b634e487b7160e01b600052604160045260246000fd5b346100d25760203660031901126100d25760043560005260016020526080604060002060018060a01b0380825416916001600160801b03600182015416916003816002840154169201541691604051938452602084015260408301526060820152f35b346100d25760003660031901126100d2576000546040516001600160a01b039091168152602090f35b346100d25760203660031901126100d25760005460405163133f757160e31b81526004803590820152610180918290829060249082906001600160a01b03165afa9081156101d3576020926000926102e7575b50506001600160801b0360405191168152f35b6103069250803d10610319575b6102fe8183610e5f565b810190610ef0565b50505050965050505050505082806102d4565b503d6102f4565b346100d25760003660031901126100d257602060405173a0b86991c6218b36c1d19d4a2e9eb0ce3606eb488152f35b346100d25760003660031901126100d2576002546040519061037082610e27565b815230602082019081526001600160801b0360408084018281526060850183815260008054845163fc6f786560e01b81529751600489015295516001600160a01b03908116602489015292518516604488015290519093166064860152909284926084928492165af19081156101d3576040916000916000916101a4575082519182526020820152f35b346100d25760403660031901126100d2576004356024908135916040516020928382016323b872dd60e01b9586825233858501526044963088860152600080606496868882015287815261044d81610e43565b51736b175474e89094c44da98b954eedeac495271d0f9582875af16104706110c3565b81610736575b501561070e57600080916040518981019182523389820152308b82015284888201528781526104a481610e43565b51908273a0b86991c6218b36c1d19d4a2e9eb0ce3606eb485af16104c66110c3565b816106de575b50156106b657600080546040805163095ea7b360e01b818b019081526001600160a01b03938416828b0190815260208101899052939685949093919285929091610522918391015b03601f198101835282610e5f565b51925af161052e6110c3565b81610686575b501561065f5761054881836000541661111b565b600254916040519260c0840184811067ffffffffffffffff82111761064a579160c49493916000936040528452888401958652604084019182526060998a97888601858152608087019286845260a0880194428652875416956040519c8d9b8c9a63219f5d1760e01b8c525160048c015251908a0152519088015251908601525160848501525160a48401525af19081156101d357600092600091600093610605575b506001600160801b03604051941684528301526040820152f35b93509150508282813d8311610643575b61061f8183610e5f565b810103126100d25761063082610e81565b60408284015193015190929091856105eb565b503d610615565b87634e487b7160e01b60005260416004526000fd5b50505092600261534160f01b926040519462461bcd60e51b86526004860152840152820152fd5b8051801592508890831561069e575b50505088610534565b6106ae9350820181019101611103565b888781610695565b5050509260036229aa2360e91b926040519462461bcd60e51b86526004860152840152820152fd5b805180159250889083156106f6575b505050886104cc565b6107069350820181019101611103565b8887816106ed565b60405162461bcd60e51b8152600481018890526003818801526229aa2360e91b818a01528590fd5b8051801592508990831561074e575b50505089610476565b61075e9350820181019101611103565b898881610745565b346100d25760003660031901126100d25760405167ffffffffffffffff60608201818111838210176101df5760405260008068056bc75e2d631000008085526305f5e100602086015233604086015260018060a01b038254169060405190602082019263095ea7b360e01b845260248301526044820152604481526107ea81610e27565b519082736b175474e89094c44da98b954eedeac495271d0f5af161080c6110c3565b81610d3c575b5015610b2a576000546020830151610832916001600160a01b031661111b565b815160208301519060405192610160840190848210908211176101df57604052736b175474e89094c44da98b954eedeac495271d0f835273a0b86991c6218b36c1d19d4a2e9eb0ce3606eb48602084015260646040840152620d89e7196060840152620d89e8608084015260a083015260c0820152600060e082015260006101008201523061012082015242610140820152608061014061016460018060a01b03600054169360006040519586948593634418b22b60e11b855260018060a01b03815116600486015260018060a01b03602082015116602486015262ffffff6040820151166044860152606081015160020b60648601528781015160020b608486015260a081015160a486015260c081015160c486015260e081015160e486015261010081015161010486015260018060a01b036101208201511661012486015201516101448401525af180156101d357600091600093600091600093610ce8575b5060408101516109ae9085906001600160a01b0316610fa0565b80518210610b83575b602081015183106109e7575b506001600160801b0360809460405194855216602084015260408301526060820152f35b60008060018060a01b03815416604051602081019163095ea7b360e01b8352602482015282604482015260448152610a1e81610e27565b51908273a0b86991c6218b36c1d19d4a2e9eb0ce3606eb485af1610a406110c3565b81610b54575b5015610b2a57600081610514610a9d610a6487602086970151610e95565b604093840151935163a9059cbb60e01b602082019081526001600160a01b03909516602482015260448101919091529182906064820190565b51908273a0b86991c6218b36c1d19d4a2e9eb0ce3606eb485af1610abf6110c3565b81610afb575b5015610ad157846109c3565b60405162461bcd60e51b815260206004820152600260248201526114d560f21b6044820152606490fd5b8051801592508215610b10575b505085610ac5565b610b239250602080918301019101611103565b8580610b08565b60405162461bcd60e51b8152602060048201526002602482015261534160f01b6044820152606490fd5b8051801592508215610b69575b505086610a46565b610b7c9250602080918301019101611103565b8680610b61565b60008060018060a01b03815416604051602081019163095ea7b360e01b8352602482015282604482015260448152610bba81610e27565b519082736b175474e89094c44da98b954eedeac495271d0f5af1610bdc6110c3565b81610cb9575b5015610b2a57600080610bf6848451610e95565b604084810151905163a9059cbb60e01b602082019081526001600160a01b039092166024820152604481019290925290610c338160648101610514565b519082736b175474e89094c44da98b954eedeac495271d0f5af1610c556110c3565b81610c8a575b506109b75760405162461bcd60e51b815260206004820152600260248201526114d560f21b6044820152606490fd5b8051801592508215610c9f575b505086610c5b565b610cb29250602080918301019101611103565b8680610c97565b8051801592508215610cce575b505086610be2565b610ce19250602080918301019101611103565b8680610cc6565b9450925050506080823d608011610d34575b81610d0760809383610e5f565b810103126100d257815190610d1e60208401610e81565b9160606040850151940151909293909185610994565b3d9150610cfa565b8051801592508215610d51575b505083610812565b610d649250602080918301019101611103565b8380610d49565b346100d25760003660031901126100d2576020600254604051908152f35b346100d25760803660031901126100d2576004356001600160a01b0380821682036100d257602435908116036100d25760643567ffffffffffffffff8082116100d257366023830112156100d25781600401359081116100d257369101602401116100d257610dfb9060443590610fa0565b604051630a85bd0160e11b8152602090f35b346100d25760003660031901126100d25780606460209252f35b6080810190811067ffffffffffffffff8211176101df57604052565b60a0810190811067ffffffffffffffff8211176101df57604052565b90601f8019910116810190811067ffffffffffffffff8211176101df57604052565b51906001600160801b03821682036100d257565b91908203918211610ea257565b634e487b7160e01b600052601160045260246000fd5b91908260409103126100d2576020825192015190565b51906001600160a01b03821682036100d257565b51908160020b82036100d257565b9190826101809103126100d25781516bffffffffffffffffffffffff811681036100d25791610f2160208201610ece565b91610f2e60408301610ece565b91610f3b60608201610ece565b91608082015162ffffff811681036100d25791610f5a60a08201610ee2565b91610f6760c08301610ee2565b91610f7460e08201610e81565b916101008201519161012081015191610f9d610160610f966101408501610e81565b9301610e81565b90565b6000805460405163133f757160e31b815260048101859052610180936001600160a01b039290919085908290602490829087165afa9384156110b75780918196829661107f575b505090600392918460405193610ffc85610e27565b16835284604060208501926001600160801b038099168452828287019516855282606087019a168a528a8152600160205220935116956bffffffffffffffffffffffff60a01b9687855416178455600184019151166001600160801b03198254161790558360028301915116858254161790550192511690825416179055600255565b6003949750809192965061109f9350903d10610319576102fe8183610e5f565b505050509a9650505050915090959490919238610fe7565b604051903d90823e3d90fd5b3d156110fe573d9067ffffffffffffffff82116101df57604051916110f2601f8201601f191660200184610e5f565b82523d6000602084013e565b606090565b908160209103126100d2575180151581036100d25790565b60405163095ea7b360e01b602082019081526001600160a01b03909216602482015260448101929092526000918291906111588160648101610514565b51908273a0b86991c6218b36c1d19d4a2e9eb0ce3606eb485af161117a6110c3565b81611188575b5015610b2a57565b805180159250821561119d575b505038611180565b6111b09250602080918301019101611103565b388061119556fea26469706673582212202cdec94656f029fc95dcbcda68dd4971f34326c0eaba1ccd29acc5f574e39d0964736f6c63430008180033",
  "linkReferences": {},
  "deployedLinkReferences": {}
}