{
  "_format": "hh-sol-artifact-1",
  "contractName": "SingleSwapToken",
  "sourceName": "contracts/SwapToken.sol",
  "abi": [
    {
      "inputs": [
        {
          "internalType": "address",
          "name": "token1",
          "type": "address"
        },
        {
          "internalType": "address",
          "name": "token2",
          "type": "address"
        },
        {
          "internalType": "uint256",
          "name": "amountIn",
          "type": "uint256"
        }
      ],
      "name": "swapExactInputSingle",
      "outputs": [
        {
          "internalType": "uint256",
          "name": "amountOut",
          "type": "uint256"
        }
      ],
      "stateMutability": "nonpayable",
      "type": "function"
    },
    {
      "inputs": [
        {
          "internalType": "address",
          "name": "token1",
          "type": "address"
        },
        {
          "internalType": "address",
          "name": "token2",
          "type": "address"
        },
        {
          "internalType": "uint256",
          "name": "amountOut",
          "type": "uint256"
        },
        {
          "internalType": "uint256",
          "name": "amountInMaximum",
          "type": "uint256"
        }
      ],
      "name": "swapExactOutputSingle",
      "outputs": [
        {
          "internalType": "uint256",
          "name": "amountIn",
          "type": "uint256"
        }
      ],
      "stateMutability": "nonpayable",
      "type": "function"
    },
    {
      "inputs": [],
      "name": "swapRouter",
      "outputs": [
        {
          "internalType": "contract ISwapRouter",
          "name": "",
          "type": "address"
        }
      ],
      "stateMutability": "view",
      "type": "function"
    }
  ],
  "bytecode": "0x608080604052346100165761070e908161001c8239f35b600080fdfe6040608081526004908136101561001557600080fd5b600090813560e01c8063bc96faa914610180578063c31c9c07146101525763ceb920121461004257600080fd5b3461014e57606036600319011261014e5761005b6103f9565b926100da610067610414565b9460443561007781303385610552565b6100818183610620565b84519161008d8361042a565b60018060a01b0380911683526020971687830152610bb88583015233606083015242608083015260a08201528460c08201528460e082015283519263414bf38960e01b845283019061049b565b8381610104818673e592427a0aece92de3edee1f18e0157c058615645af192831561014357809361010e575b505051908152f35b909192508382813d831161013c575b6101278183610479565b81010312610139575051903880610106565b80fd5b503d61011d565b8251903d90823e3d90fd5b5080fd5b503461014e578160031936011261014e576020905173e592427a0aece92de3edee1f18e0157c058615648152f35b508290346103f55760803660031901126103f55761019c6103f9565b916101a5610414565b93604490606435946101b986303384610552565b6101c38682610620565b8451956101cf8761042a565b60018060a01b0380831688526020981688880152610bb886880152336060880152426080880152833560a08801528060c08801528260e0880152610222865197631b67c43360e31b89528689019061049b565b73e592427a0aece92de3edee1f18e0157c0586156488886101048187855af19788156103eb5784986103b8575b50818810610261575b88888851908152f35b83809188518b81019163095ea7b360e01b83526024820152828882015287815261028a8161045d565b519082865af16102986104fa565b81610388575b50156103615786810390811161034e579082918287518a81019263a9059cbb60e01b8452336024830152878201528681526102d88161045d565b51925af16102e46104fa565b8161031e575b50156102f95780808080610258565b6114d560f21b9085606494519362461bcd60e51b855284015260026024840152820152fd5b80518015925087908315610336575b505050866102ea565b610346935082018101910161053a565b86868161032d565b634e487b7160e01b835260118552602483fd5b855162461bcd60e51b81528086018990526002602482015261534160f01b81860152606490fd5b8051801592508a9083156103a0575b5050508961029e565b6103b0935082018101910161053a565b898981610397565b9097508881813d83116103e4575b6103d08183610479565b810103126103e05751968961024f565b8380fd5b503d6103c6565b87513d86823e3d90fd5b8280fd5b600435906001600160a01b038216820361040f57565b600080fd5b602435906001600160a01b038216820361040f57565b610100810190811067ffffffffffffffff82111761044757604052565b634e487b7160e01b600052604160045260246000fd5b6080810190811067ffffffffffffffff82111761044757604052565b90601f8019910116810190811067ffffffffffffffff82111761044757604052565b60e0908160018060a01b039182815116855282602082015116602086015262ffffff60408201511660408601528260608201511660608601526080810151608086015260a081015160a086015260c081015160c0860152015116910152565b3d15610535573d9067ffffffffffffffff82116104475760405191610529601f8201601f191660200184610479565b82523d6000602084013e565b606090565b9081602091031261040f5751801515810361040f5790565b6040516323b872dd60e01b602082019081526001600160a01b03938416602483015292909316604484015260648084019490945292825260a08201929067ffffffffffffffff841183851017610447576000809493819460405251925af16105b86104fa565b816105f1575b50156105c657565b60405162461bcd60e51b815260206004820152600360248201526229aa2360e91b6044820152606490fd5b8051801592508215610606575b5050386105be565b610619925060208091830101910161053a565b38806105fe565b60009190829182604051602081019263095ea7b360e01b845273e592427a0aece92de3edee1f18e0157c0586156460248301526044820152604481526106658161045d565b51925af16106716104fa565b816106a9575b501561067f57565b60405162461bcd60e51b8152602060048201526002602482015261534160f01b6044820152606490fd5b80518015925082156106be575b505038610677565b6106d1925060208091830101910161053a565b38806106b656fea264697066735822122053345312bb7f02d976942fe16f7d81bc4a1114cebfebd16d5f2f2665ec986c1664736f6c63430008180033",
  "linkReferences": {},
  "deployedLinkReferences": {}
}