{
  "_format": "hh-sol-artifact-1",
  "contractName": "SwapMultiHop",
  "sourceName": "contracts/SwapMultiHops.sol",
  "abi": [
    {
      "inputs": [],
      "name": "DAI",
      "outputs": [
        {
          "internalType": "address",
          "name": "",
          "type": "address"
        }
      ],
      "stateMutability": "view",
      "type": "function"
    },
    {
      "inputs": [],
      "name": "USDC",
      "outputs": [
        {
          "internalType": "address",
          "name": "",
          "type": "address"
        }
      ],
      "stateMutability": "view",
      "type": "function"
    },
    {
      "inputs": [],
      "name": "WETH9",
      "outputs": [
        {
          "internalType": "address",
          "name": "",
          "type": "address"
        }
      ],
      "stateMutability": "view",
      "type": "function"
    },
    {
      "inputs": [],
      "name": "poolFee",
      "outputs": [
        {
          "internalType": "uint24",
          "name": "",
          "type": "uint24"
        }
      ],
      "stateMutability": "view",
      "type": "function"
    },
    {
      "inputs": [
        {
          "internalType": "uint256",
          "name": "amountIn",
          "type": "uint256"
        }
      ],
      "name": "swapExactInputMultihop",
      "outputs": [
        {
          "internalType": "uint256",
          "name": "amountOut",
          "type": "uint256"
        }
      ],
      "stateMutability": "nonpayable",
      "type": "function"
    },
    {
      "inputs": [
        {
          "internalType": "uint256",
          "name": "amountOut",
          "type": "uint256"
        },
        {
          "internalType": "uint256",
          "name": "amountInMaximum",
          "type": "uint256"
        }
      ],
      "name": "swapExactOutputMultihop",
      "outputs": [
        {
          "internalType": "uint256",
          "name": "amountIn",
          "type": "uint256"
        }
      ],
      "stateMutability": "nonpayable",
      "type": "function"
    },
    {
      "inputs": [],
      "name": "swapRouter",
      "outputs": [
        {
          "internalType": "contract ISwapRouter",
          "name": "",
          "type": "address"
        }
      ],
      "stateMutability": "view",
      "type": "function"
    }
  ],
  "bytecode": "0x608080604052346100165761080c908161001c8239f35b600080fdfe60806040908082526004918236101561001757600080fd5b600091823560e01c908163089fe6aa146104d7575080633b85cf6a1461028a5780634aa4a4fc1461025c57806389a302711461022e578063c31c9c0714610200578063e0bab4c4146101d25763edd835571461007257600080fd5b346101ce57602092836003193601126101ca57838082359261009584303361063c565b61009e8461070b565b8451736015551cd911ff4685072e2793f56c841e3ab66160611b8382015261017760eb1b603482018190527314170d3238c43166d83a33a945d3d619c6c0dd6960631b6037830152604b820152736b175474e89094c44da98b954eedeac495271d0f60601b604e820152604281529361011685610525565b855194610122866104f3565b855233838601524286860152606085015285608085015261015a8551948593849363c04b8d5960e01b85528401526024830190610563565b03818673e592427a0aece92de3edee1f18e0157c058615645af19283156101bf57809361018a575b505051908152f35b909192508382813d83116101b8575b6101a38183610541565b810103126101b5575051903880610182565b80fd5b503d610199565b8251903d90823e3d90fd5b8280fd5b5080fd5b50346101ce57816003193601126101ce5760209051736b175474e89094c44da98b954eedeac495271d0f8152f35b50346101ce57816003193601126101ce576020905173e592427a0aece92de3edee1f18e0157c058615648152f35b50346101ce57816003193601126101ce576020905173a0b86991c6218b36c1d19d4a2e9eb0ce3606eb488152f35b50346101ce57816003193601126101ce576020905173c02aaa39b223fe8d0a0e5c4f27ead9083c756cc28152f35b508290346101ca57806003193601126101ca5761037b9192602435906102b182303361063c565b6102ba8261070b565b8251736b175474e89094c44da98b954eedeac495271d0f60601b60208083019190915261017760eb1b603483018190527314170d3238c43166d83a33a945d3d619c6c0dd6960631b6037840152604b830152736015551cd911ff4685072e2793f56c841e3ab66160611b604e83015260428252959061033881610525565b845190610344826104f3565b815233878201524285820152813560608201528360808201528451958691631e51809360e31b835288848401526024830190610563565b03868673e592427a0aece92de3edee1f18e0157c05861564928186855af19586156104cd57839661049e575b508386106103ba575b5050505051908152f35b82809186518981019163095ea7b360e01b83526024820152826044820152604481526103e581610525565b51908273c02aaa39b223fe8d0a0e5c4f27ead9083c756cc25af16104076105df565b8161046e575b50156104465784830392831161043357505061042a90333061063c565b838080806103b0565b634e487b7160e01b825260119052602490fd5b835162461bcd60e51b81529081018690526002602482015261534160f01b6044820152606490fd5b80518015925088908315610486575b5050508761040d565b610496935082018101910161061f565b87878161047d565b9095508681813d83116104c6575b6104b68183610541565b810103126101ca575194876103a7565b503d6104ac565b85513d85823e3d90fd5b8390346101ce57816003193601126101ce5780610bb860209252f35b60a0810190811067ffffffffffffffff82111761050f57604052565b634e487b7160e01b600052604160045260246000fd5b6080810190811067ffffffffffffffff82111761050f57604052565b90601f8019910116810190811067ffffffffffffffff82111761050f57604052565b919082519260a082528351908160a084015260005b8281106105c9575060c0939450608090600085848601015260018060a01b036020820151166020850152604081015160408501526060810151606085015201516080830152601f8019910116010190565b80602080928801015160c0828701015201610578565b3d1561061a573d9067ffffffffffffffff821161050f576040519161060e601f8201601f191660200184610541565b82523d6000602084013e565b606090565b90816020910312610637575180151581036106375790565b600080fd5b6040516323b872dd60e01b602082019081526001600160a01b0392831660248301529190921660448301526064808301939093529181526000918291610681816104f3565b51908273c02aaa39b223fe8d0a0e5c4f27ead9083c756cc25af16106a36105df565b816106dc575b50156106b157565b60405162461bcd60e51b815260206004820152600360248201526229aa2360e91b6044820152606490fd5b80518015925082156106f1575b5050386106a9565b610704925060208091830101910161061f565b38806106e9565b60008091604051602081019163095ea7b360e01b835273e592427a0aece92de3edee1f18e0157c05861564602483015260448201526044815261074d81610525565b51908273c02aaa39b223fe8d0a0e5c4f27ead9083c756cc25af161076f6105df565b816107a7575b501561077d57565b60405162461bcd60e51b8152602060048201526002602482015261534160f01b6044820152606490fd5b80518015925082156107bc575b505038610775565b6107cf925060208091830101910161061f565b38806107b456fea26469706673582212206a3717568a53b78209e7ef95c33eb55d38d863749a91ad3752657fb6e350dcca64736f6c63430008180033",
  "linkReferences": {},
  "deployedLinkReferences": {}
}